:020000040800F2
:1000000098050020450100081F1500088514000808
:100010001D150008190A000835240008000000001A
:10002000000000000000000000000000311A00087D
:100030001112000800000000D5160008E920000891
:100040005F0100085F0100085F0100085F01000810
:100050005F0100085F0100085F0100085F01000800
:100060005F0100085F0100085F0100085F010008F0
:100070005F0100085F0100085F0100085F010008E0
:100080005F0100085F0100085F0100085F010008D0
:10009000F12300085F0100085F0100085F0100080C
:1000A0005F0100085F0100085F0100085F010008B0
:1000B0005F0100085F0100085F0100085F010008A0
:1000C0005F0100085F0100085F0100085F01000890
:1000D0005F0100085F0100085F0100085F01000880
:1000E0005F0100085F0100085F0100085F01000870
:1000F0005F0100085F0100085F0100085F01000860
:100100005F0100085F0100085F0100085F0100084F
:100110005F0100085F0100085F0100085F0100083F
:100120005F0100085F0100085F0100085F0100082F
:10013000DFF80CD000F0E8FA00480047792D0008FD
:10014000980500200648804706480047FEE7FEE77E
:10015000FEE7FEE7FEE7FEE7FEE7FEE7FEE7FEE777
:10016000ED20000831010008420005D0C0F3C7525D
:100170005242914201DC0020704700EBC1507047B1
:100180002DE9FE4F81EA030421F0004504F000440C
:1001900023F000414FF0000A009450EA050302D01A
:1001A00052EA010304D10020014603B0BDE8F08FFC
:1001B000C1F30A53C5F30A541C44A0FB02B3C5F3B0
:1001C000130545F4801CC1F3130141F480180CFBA6
:1001D000023300FB083EA4F2F334810A930A41EA99
:1001E0008C5143EA88530194A1FB03474FEA9C25B5
:1001F00005FB03734FEA982601FB06373D052605EC
:1002000045EA1435BBEB06016EEB0503850E920E35
:1002100045EA8C1542EA8812A5FB0206261E67EB0A
:1002200000070C0D44EA0334A41947EB1350C1F343
:1002300013064FF0000319464FEA033343EA1653FF
:1002400043EA0403019CE5FB0201A4F10C040294BF
:10025000009C4FEA0632CDE900A400F0C2F8A4E702
:1002600096230022114600F082B800F0004230F0E0
:1002700000400DD0C10D01F5607142EA015100222C
:10028000C0F31600520742EAD002400711437047FC
:1002900000200146704701F0004230B421F00041D7
:1002A00050EA010306D00B0DA3F56073C1F31301EF
:1002B000002B02DC30BC00207047440F44EAC1042C
:1002C000C100A01830BC00EBC35000F047B830B5F7
:1002D0000B46014600202022012409E021FA02F504
:1002E0009D4205D303FA02F5491B04FA02F528449E
:1002F000151EA2F10102F1DC30BD2DE9F05F0546CB
:10030000002092469B4688460646814640241BE0D4
:10031000284641464746224600F017FA52465B46B9
:10032000801A994110D310461946224600F0FEF972
:100330002D1A67EB01084F4622460120002100F0EC
:10034000F5F917EB00094E41201EA4F10104DFDC92
:10035000484631462A464346BDE8F09F0029A8BFDB
:100360007047401C490008BF20F00100704710B4DE
:10037000B0FA80FC00FA0CF050EA010404BF10BC93
:10038000704749B1CCF1200421FA04F411FA0CF1C0
:1003900018BF012121430843A3EB0C01CB1D01062B
:1003A000000A002BBEBF002010BC704700EBC350FA
:1003B00010440029A4BF10BC7047401C490008BF6E
:1003C00020F0010010BC704710B5002B08DA401C6B
:1003D00041F1000192185B411A4301D120F0010064
:1003E00010BD2DE9F04D92469B4611B1B1FA81F254
:1003F00002E0B0FA80F22032904600F097F906460B
:100400000F4640EA0A0041EA0B0152465B460843A8
:1004100003D130463946BDE8F08D194652EA010055
:1004200015D0C8F14002504600F08FF904460D4641
:1004300050465946424600F079F9084301D0012060
:1004400000E00020044345EAE07526432F430A9864
:100450004FEAD625A0EB08000A304FEA46534FF08A
:10046000000245EA47554FEAD72402D5002001464D
:10047000D1E7010550196141DDE9084500196941DD
:10048000BDE8F04DA0E72DE9FE4F074681EA0300E5
:10049000C00F0E46019021F0004123F00044B81A2D
:1004A000A14105D23846314617461E460B46024644
:1004B00023F00040104304D13846314603B0BDE874
:1004C000F08F350DC5F30A00C3F30A510290401AAC
:1004D0000090402868DAC3F3130040F4801B0198B1
:1004E000924620B10023D2EB030A63EB0B0B00987A
:1004F0005946C0F14002504600F018F980460C46BB
:1005000050465946009A00F030F9C0197141EF1772
:1005100085EA11533B4340D0019A52B3009A012A15
:1005200011DC0022801A4FF0004361EB055103EA11
:1005300005538018CDE9002341F58011424623463A
:10054000FFF74FFFBAE72E050025401B61EB0601C0
:10055000401941F58012001852412818A6F50013E1
:1005600043EB020140EAD470294318EB08086441C8
:1005700013E064084FEA38084FF0000244EAC07400
:100580004FEA0553801A61EB0301801841F5801191
:1005900049084FEA3000801859414246234603B0CB
:1005A000BDE8F04FFFF710BF019801224000002383
:1005B000D0EB020263EBE07301984FEAE074381A63
:1005C00066EB0401EBE783F000435CE781F0004158
:1005D00059E72DE9F04D81EA030404F0004B21F0C6
:1005E000004714464FF0000A23F0004150EA07028A
:1005F00020D054EA01021DD0C1F30A550246C1F3CE
:100600001300C7F30A56C7F3130340F4801143F4F1
:100610008013A6EB0508101BD64608F2FD3873EBD5
:10062000010002D308F1010801E092185B41B8F122
:10063000000F03DA00200146BDE8F08D00204FF4E2
:100640008015064607460EE0B2EB040C73EB010C76
:1006500004D3121B064363EB01032F436D084FEADB
:10066000300092185B4150EA050CEDD152EA0300CC
:1006700012D082EA040083EA0105284303D1002254
:100680004FF0004308E0101B8B4102D201220023EF
:1006900002E06FF0010253101AEB060047EB08511D
:1006A00010EB0A0041EB0B01BDE8F04DFFF78CBEEB
:1006B000C1F30A52C1F3130140F2FF3341F4801138
:1006C0009A4202DA00200146704740F233439A42D0
:1006D000A2F2334202DC524200F037B800F026B8F2
:1006E00030B5002904DB4FF00044404264EB0101C7
:1006F000002B04DB4FF00044524264EB03039942A9
:1007000008BF904230BD0000064C074D06E0E0688F
:1007100040F0010394E8070098471034AC42F6D348
:10072000FFF70AFD0431000824310008202A04DB09
:10073000203A00FA02F1002070479140C2F12003F4
:1007400020FA03F3194390407047202A04DB203A33
:1007500021FA02F00021704721FA02F3D040C2F1E1
:1007600020029140084319467047202A06DBCB1728
:10077000203A41FA02F043EAE071704741FA02F38D
:10078000D040C2F12002914008431946704770B52D
:1007900001EB020410F8015B15F0070301D110F81A
:1007A000013B2A1106D110F8012B03E010F8016B70
:1007B00001F8016B5B1EF9D12B0705D40023521EF3
:1007C0000FD401F8013BFAE710F8013B02F10202F5
:1007D000A1EB030303E013F8015B01F8015B521E78
:1007E000F9D5A142D6D3002070BD000008B5012183
:1007F000084600F0B3FF01214FF4047000F0C6FF7B
:100800003020ADF8000000208DF803006946034851
:1008100000F0AEFDBDE8084000F002B80010014055
:1008200070B5304E90B0304600F0E2FA2E4800909D
:100830002E4801A90024022531C18020CDE90440C1
:100840004000069080000790202008900002CDE92B
:1008500009046946304600F03DFB0121304600F0B6
:10086000BBFA01208DF830008DF831000B944FF465
:100870006020CDE90D041C4C8DF83C504C3C0BA97C
:10088000204600F057F84FF4404000F05DFF05238C
:1008900001220E21204600F071F8052302220F21CB
:1008A000204600F06BF80121204600F02BF80121D2
:1008B000204600F01DF8204600F09AF8204600F08F
:1008C00032F80028FAD1204600F0A1F8204600F0C6
:1008D00023F80028FAD10121204600F08EF810B04C
:1008E00070BD0000080002404C240140340100208B
:1008F0000029816802D041F0010101E021F00101ED
:10090000816070470029816802D041F4807101E064
:1009100021F4807181607047014600208968490791
:1009200000D501207047014600208968090700D5DD
:100930000120704710B542680E4B0C791A400B68C5
:1009400042EA04221343436082680B4B1A40D1E908
:10095000024323434C7942EA440213438360C26A50
:10096000097C22F47002491EC9B242EA0151C162F7
:1009700010BD0000FFFEF0FFFDF7F1FF70B5072688
:1009800009290AD9C568A1F10A0404EB4404A64068
:10099000B543A3401D43C56007E0056901EB410471
:1009A000A640B543A3401D4305611F23072A09D272
:1009B000446B521E02EB820293409C4391400C43D5
:1009C000446370BD0D2A09D2046BD21F02EB820270
:1009D00093409C4391400C43046370BDC46A0D3A3C
:1009E00002EB820293409C4391400C43C46270BD71
:1009F000816841F00801816070470029816802D058
:100A000041F4A00101E021F4A001816070478168F8
:100A100041F0040181607047FEE7C1B2000A40EA7C
:100A2000012070472DE9F05F4BF6BF7848F280094E
:100A3000454F40F68F7A454E454D48F60F7B27E0EF
:100A4000088810F00F0030702BD005EB8000016893
:100A50008CB221040BD5016889B201EA0A01016058
:100A60003C48317800EB810050F8040C80472006A8
:100A70000ED5307805EB8000016889B201EA0B01E0
:100A800001603548317800EB810050F8040C804754
:100A90002F4844300068314908800004D0D4BDE8B4
:100AA000F09F28683880388800F0300078803888D7
:100AB00000F440503880286880B200EA080080F4D2
:100AC000005080F0200040EA090028600888C00635
:100AD0000028286880B217DB00EA0B00286000F0CD
:100AE000D3FC24E03988890401D580F4005079884A
:100AF000C90626D47988890601D580F0200080B205
:100B000040EA09002860CAE7010507D5286880B2D5
:100B100000EA0A00286001F01BF908E00004B7D5DC
:100B2000286880B200EA0A00286000F0A1FD286869
:100B3000398880B200EA0800C904D3D580F4805017
:100B4000D0E780F01000D5E72A0000201800002030
:100B5000005C00406C000020500000204C00002091
:100B6000074901EB80000168490408D5016848F68F
:100B70008F7289B211404CF28002114301607047BC
:100B8000005C0040074901EB80000168490608D578
:100B9000016848F68F7289B2114048F2C0021143D1
:100BA00001607047005C0040064901EB800001686D
:100BB00048F68F6289B2114048F280021143016009
:100BC00070470000005C0040124910B50A68062812
:100BD000117801F07F0103D1012901D1537913B1BB
:100BE00021290AD013E09078222802D0212802D0AF
:100BF0000DE0094904E0094902E0032807D108494A
:100C000029B10020916150828847002010BD022048
:100C100010BD00001C000020650C00083D0C000801
:100C2000490C0008014901F051B90000980000206A
:100C3000014901F04BB9000090000020014901F08A
:100C400045B90000A800002008B1044870470449D5
:100C50000120096808820020704700008C000020F5
:100C60001C000020014901F031B90000A000002063
:100C700005490968C978042901D900207047034A49
:100C800002EBC10101F022B91C000020E0000020AD
:100C900009B9002800D00220704700000649096801
:100CA000097801F07F01212901D10B2801D0022010
:100CB000704700F071B800001C00002070B5294892
:100CC000002100688172C1722749C97941720020F0
:100CD00000F0B0FE4FF40071002000F077FF10210B
:100CE000002000F049FF1821002000F0CDFE58211F
:100CF000002000F023FF0020FFF756FF1B4890F86C
:100D00002C10002000F0D0FE002000F005FF4FF472
:100D1000C0642146012000F059FF9821012000F015
:100D2000B3FE4021012000F0BFFEE100012000F0F1
:100D3000DBFE2146022000F049FF4FF48C710220B7
:100D400000F0FCFE4021022000F008FF20210220DC
:100D500000F012FF064D01242C60002000F072FE0E
:100D60002C6070BD1C0000203A2F0008B00000204D
:100D7000240100200348807A002802D0024905207F
:100D8000086070473C010020240100200149042034
:100D90000860704724010020034804490068C078B7
:100DA00008600020704700001C0000208C0000201C
:100DB0007047704710B500F04BFB054800240068F1
:100DC000847200F0ABFC01F015FB0248046010BD1A
:100DD0001C000020240100200029016802D041F0FD
:100DE000010102E04FF6FE72114001607047000001
:100DF00001684FF6FE721140016000210160416000
:100E00008160C1603149314A0839904203D1486854
:100E100040F00F0006E02D4A1432904204D1486899
:100E200040F0F00048607047284A2832904203D1D1
:100E3000486840F47060F5E7244A3C32904203D1A0
:100E4000486840F47040EDE7204A5032904203D1A8
:100E5000486840F47020E5E71C4A6432904203D1B0
:100E6000486840F47000DDE7184A7832904203D1B8
:100E7000486840F07060D5E7154A111F904203D1D1
:100E8000086840F00F0006E0114A1432904204D185
:100E9000086840F0F000086070470D4A2832904220
:100EA00003D1086840F47060F5E7094A3C3290428B
:100EB00003D1086840F47040EDE7054A5032904293
:100EC000EAD1086840F47020E5E70000080002401D
:100ED0000804024030B5036847F6F07293430C6A89
:100EE0008A682243D1E904452C4322438C6922437A
:100EF000CC6922434C6A22438C6A22431A43026023
:100F0000CA6842600A6882604968C16030BD0000FA
:100F10002DE9F05FDFF89C90DFF89C804FF0300AFD
:100F2000D9F8001001F11004088A0E7A08B9042ECD
:100F300004D0A588A84216D8042615E01F4A1078C8
:100F4000012804D007261021A8F800102CE01C4925
:100F5000002009681B4B89B203EB41014860A8F8E7
:100F600000A0107020E00226854200D90546A8B2F4
:100F7000A168074688478346002000F05BFA0146D7
:100F80003A46584601F058FA3946002000F0E6FD8E
:100F90002088401B2080608828446080A8F800A03A
:100FA00009494FF440500880D9F800000672BDE8A6
:100FB000F09F00001C0000202C00002014000020E6
:100FC000505C0040006000402A0000202DE9F047FE
:100FD000234EDFF890904FF03008346834F8100F4B
:100FE000A168B1B108B3A588854200D90546A8B269
:100FF0000746884782462088401B20806088284416
:101000006080002000F006FA01463A46504600F0A3
:1010100053FB208848B114494FF440500880002108
:10102000084600F09BFDA9F800802088A18888422E
:1010300001D3032001E020B1052031680872BDE82A
:10104000F087316806200872084900200968084ABC
:1010500089B202EB41014860A9F80080EFE7000087
:101060001C0000202C0000202A000020505C0040C2
:10107000006000402DE9F0415C4C5D4D0926206880
:10108000002729684278062A05D0AAB1082A4BD041
:101090000A2A4ED069E00278520666D1807801288B
:1010A00004D0022804D0032804D05EE0C96954E0CB
:1010B000096A52E0496A50E04288A2BBC288022A0B
:1010C00053D102797ABB0278530601D1838833B1B8
:1010D00002F07F02012A04D0022A0CD045E04549E3
:1010E0003BE08A69407900219047E0B92068807A26
:1010F0000028F4D139E0417901F00F0001F07002CD
:101100000B063D4951F8201003D5C1F30111090127
:1011100002E0C1F301310903384B1B78834224D923
:101120000AB90029DBD120E0007840061DD13449FE
:1011300013E0027802F07F02012A16D1827AA2B16E
:10114000428892B9027982B9C288012A0DD18A698E
:1011500040790021904740B92A4931B1206847823F
:10116000816100208847002006E02968206809691D
:1011700040788847032808D021680A8AA2F57F436F
:10118000FF3B05D10E72BDE8F08120680672FAE7D8
:10119000022808D03AB10878000620D5C8888242D3
:1011A00005D9088213E04FF008000872EBE70ED271
:1011B0002868154B90F82C00824201D21F7006E07F
:1011C000B2FBF0F400FB142008B901201870286865
:1011D00090F82C008882BDE8F041FFF799BE03200B
:1011E00008720A4900030880CDE700001C000020B7
:1011F00020000020111F0008005C00408800002033
:10120000A51E0008E91E0008140000202A00002086
:101210007047704710B540229821064800F04CFAFC
:101220004FF44051012000F05FFC03490120087099
:1012300010BD000058010020490000207047000048
:1012400030B51A4A8379016853B313688B4313602E
:10125000111D0B680468A3430B60017911440B68EE
:10126000046823430B60114B083319680468A143D9
:1012700019601C1D21680568A94321604179102966
:1012800005D011440A68006802430A6030BD19683D
:10129000026811431960216800680143216030BD74
:1012A0000079104402688A43026030BD00040140A6
:1012B0007FB50121212000F069FA4FF4C06000F0F1
:1012C00063F908208DF8080000248DF809408DF896
:1012D0000A4001268DF80B6002A800F023F90425CE
:1012E000ADF80C5028208DF80F0003A9094800F034
:1012F0003FF80221032000F027F88DF804400C206D
:101300008DF8050000958DF806606846FFF798FF98
:101310007FBD0000001401407047000004490A68C6
:1013200022F010020A600A6802430A607047000057
:1013300000200240034A116801F0380101431160A6
:10134000704700000020024010B58A0721F0030416
:101350000649120F21440F238C6893409C438C60F4
:101360008B68904003438B6010BD0000000001407B
:10137000F0B5CC78002204F00F03E40601D58C7898
:1013800023430C884FF00F0C14F0FF0F4FF0010EA9
:101390001AD005680E880EFA02F42640A6420FD134
:1013A00096000CFA06F7BD4303FA06F63543CE78ED
:1013B000282E02D0482E02D002E0446100E00461F1
:1013C000521C082AE6D305600A88FF2A1DD9456801
:1013D000002202F108060EFA06F40E882640A64204
:1013E0000FD196000CFA06F725EA070703FA06F56F
:1013F000CE783D43282E00D14461CE78482E00D1CE
:101400000461521C082AE4D34560F0BD4161704775
:10141000016170470549096889B201EBC0000449C0
:1014200001EB4000806880B270470000505C0040D3
:10143000006000400449096889B201EBC00003491B
:1014400051F8100080B27047505C004000600040CE
:101450000A4810B50168001D0468001D00680818DE
:101460000BD00822064900F03DF805492046042229
:10147000BDE81040103100F035B810BDE8F7FF1F8F
:1014800031000020FEE7000010B5134C2068017AFF
:10149000022904D0042902D0062905D015E0FFF75F
:1014A00037FD2068007A11E04178052909D10178DB
:1014B000490606D1C07800F0C5FA08480068006AFD
:1014C00080470748006880688047082021680872C4
:1014D000BDE8104000F000B91C00002024000020EE
:1014E00020000020F0B500230A2630274FF0370CEB
:1014F0001C460FE0B6EB107F02D907EB107501E038
:101500000CEB107501F8135001EB430500015B1C57
:101510006C70DBB29342EDD3F0BD7047FEE77047CD
:101520007047000070B50F24C278017801254FF094
:10153000E026DAB1124A126802F4E062C2F5E06213
:10154000120AC2F10403D44042789A4083782340BF
:1015500013431A010B4BCA54007800F01F018D4051
:10156000400906EB8000C0F8005170BD01F01F007B
:101570008540480906EB8000C0F8805170BD00002E
:101580000CED00E000E400E0024908430249086075
:10159000704700000000FA050CED00E070B52F4D1B
:1015A0002868017844784A0606D001F07F000128B7
:1015B00028D002282BD035E0092C06D0052C07D0E6
:1015C000032C0ED0012C14D02CE000F0E9FC28E014
:1015D000C1787F292ED8817861BB818851BB807A00
:1015E00027E0C17801291DD18088D8B900F0F4FC2A
:1015F00017E0C178012915D1818899B9407A800610
:101600000AD40FE00B2C0DD100F03AFD09E0012CBB
:1016100002D0032C03D005E000F0CEFB01E000F087
:10162000EDFC58B10E4800684169E0B288470328D4
:1016300002D018B108200DE009200BE0094A06206D
:1016400000211268084B92B203EB42025160074A34
:10165000302111802968087270BD00001C00002034
:1016600020000020505C0040006000402C00002062
:1016700010B50F4C2068007A022811D004280FD032
:10168000032804D0052802D0072805D008E0FFF77A
:101690009DFC2068007A04E006480068C068804726
:1016A000082021680872BDE8104000F015B800005D
:1016B0001C00002020000020054B521C520803EBA8
:1016C000410104D008C920F8023B521EFAD17047EC
:1016D00000600040704700000C4810B590F82C10D6
:1016E000002000F0E1F90A480068007A082802D0DA
:1016F000092809D006E007494FF4805008800649C0
:1017000010200880002010BD012010BDB000002076
:101710001C0000202A0000202C00002010B5012011
:1017200000F0C0FD0648012101600021054A01606A
:10173000031D19604FF4E05111800160002010BDBD
:10174000405C004028000020034A516821F44041D9
:10175000014351607047000000100240044A002914
:10176000516901D0014300E081435161704700009D
:1017700000100240044A0029D16901D0014300E071
:101780008143D1617047000000100240044A0029E3
:10179000916901D0014300E08143916170470000ED
:1017A000001002400C48016841F0010101604168ED
:1017B0000A4A114041600168094A1140016001680C
:1017C00021F480210160416821F4FE0141604FF461
:1017D0001F01816070470000001002400000FFF808
:1017E000FFFFF6FE214A10B55168214B11F00C01A4
:1017F00003D0042901D0082901D0036012E0516808
:10180000536801F470114FF0020413F4803F04EBAD
:10181000914102D053689B0301D5164B00E0144B55
:10182000594301605168144B01F0F00109095C5CF7
:101830000168E1404160546804F4E064240A1C5DDE
:1018400021FA04F48460546804F46054E40A1B5DD3
:10185000D940C1605268084B02F44042920B1B1FF2
:101860009A5CB1FBF2F1016110BD00000010024072
:1018700000127A0000093D00040000200346002009
:101880005909094A01290AD002290AD0516A03F0EC
:101890001F02012393400B4200D0012070471168C2
:1018A000F5E7116AF3E700000010024002484068C3
:1018B00000F00C007047000000100240034A51681D
:1018C00021F0F00101435160704700000010024018
:1018D0000B490A6822F480320A600A6822F48022E6
:1018E0000A60B0F5803F07D0B0F5802F03D10868BB
:1018F00040F4A02008607047086840F48030F9E7A1
:1019000000100240034A516821F4E0610143516034
:101910007047000000100240034A516821F46051F2
:1019200041EAC0005060704700100240014908665B
:101930007047000000004242034B5A68084322F4FB
:101940007C1210435860704700100240034A5168EF
:1019500021F0030101435160704700000010024074
:101960000149086070470000D800424230B50024A9
:101970004FF4A0653120FFF781FF641CAC4201D019
:101980000028F7D03120FFF779FF002800D0012090
:1019900030BD000070B51C4C072800D020702078A6
:1019A00006250426194906282CD2DFE800F0030694
:1019B000090E162000F02CF824E000F029F80AE0C7
:1019C000022060700320207070BD6078401E60703F
:1019D00060780028F8D1267070BD086880B240F0A9
:1019E00010000860052020700A20607070BD6078CB
:1019F000401E607060780028F8D1086880B220F03E
:101A000010000860257070BD29010020405C004076
:101A100010B5064C206880B220F004002060FFF76B
:101A20007CFD4FF43F40206010BD0000405C004052
:101A300070470000024920F007000860704700006E
:101A4000505C0040F0B50E490E4E48F68F770D7889
:101A5000002148F2800C0AE0CAB206EB82031C683F
:101A6000A4B23C40144344EA0C041C60491CA94243
:101A7000F2D3044940F080004C310860F0BD000012
:101A800088000020005C0040054A21F00101126836
:101A900092B202EBC000034A02EB40008160704743
:101AA000505C0040006000400D4A12683E2992B22E
:101AB00002EBC0000B4A02EB400209D94809C906F3
:101AC00001D1401E80B24FF4004141EA802005E080
:101AD0004808C90701D0401C80B2800210607047DE
:101AE000505C00400C6000400A4A02EB8002106823
:101AF0004BF68F7380B200EA0300CB0401D580F46B
:101B00008050890401D580F4005048F280010843D8
:101B100010607047005C0040074901EB80000168DD
:101B20004BF68F7289B2114081F4405148F2800225
:101B30001143016070470000005C0040054A21F03D
:101B40000101126892B202EBC000034A42F8101081
:101B500070470000505C004000600040044A12687A
:101B600092B202EBC000034A02EB400041607047B2
:101B7000505C0040006000400A4A02EB800210689E
:101B800048F6BF7380B200EA0300CB0601D580F0AF
:101B90001000890601D580F0200048F2800108433A
:101BA00010607047005C0040074901EB800001684D
:101BB00048F6BF7289B2114081F0300148F28002CC
:101BC0001143016070470000005C0040054A02EBD1
:101BD0008000026848F68F1392B21A400A430260EE
:101BE00070470000005C0040224900200A6842F46F
:101BF00080320A604FF4A0630A6800F1010012F419
:101C0000003F01D19842F7D10868800330D51A48C7
:101C1000026842F010020260026822F003020260D1
:101C2000026842F002020260486848604868486002
:101C3000486840F480604860486820F47C10486040
:101C4000486840F4E8104860086840F08070086018
:101C500008688001FCD5486820F0030048604868A7
:101C600040F0020048604868C0F381000228FAD1C1
:101C700070470000001002400020024038B5FFF716
:101C800091FD4FF480342046FFF722FEFFF76EFEF1
:101C900027490128087000D0FEE71020FFF73EFB1F
:101CA0000220FFF747FB0020FFF708FE0020FFF7A8
:101CB00033FE4FF48060FFF725FE4FF4E01120461D
:101CC000FFF73AFE0120FFF731FE3920FFF7D6FD7E
:101CD0000028FAD00220FFF739FEFFF7E7FD0828B9
:101CE000FBD101214006FFF745FD01214020FFF710
:101CF0004DFD0820ADF8000002208DF802001024F0
:101D00008DF8034069460B48FFF732FB0121102094
:101D1000FFF73CFD49F20300ADF8000003208DF809
:101D200002008DF8034069460348FFF721FB38BDE8
:101D30002E000020001801400010014010B50020C6
:101D4000FFF70EFE0121BDE81040C805FFF712BDE8
:101D500070B516480068174D81B2154800EB410177
:101D6000896889B200EB41042868017A09290FD0FB
:101D70002178017061784170A088FEF74EFE2968D5
:101D800048802089FEF749FE29688880A089C8809C
:101D9000286801210172C08828B1FFF76BF9BDE8FE
:101DA0007040FFF799BCFFF7F9FBF8E7505C004083
:101DB000006000401C0000202DE9F041344801681B
:101DC000087810F07F0002D0022805D05EE0487A43
:101DD00000F0DF00487247E04888002856D10879B3
:101DE000002853D14A792C4D22F080001306294C4B
:101DF00055F8203003D5C3F301131B0102E0C3F3F0
:101E000001331B032678044686423FD97BB3897A87
:101E100069B311060ED555F82010C1F3011101293F
:101E20001ED1E0B20446FEF7ADFE30212046FFF79A
:101E3000A3FE15E005EB80042168C1F301310129FF
:101E40000ED14BF68F7648F2800788B1C0B2FEF70C
:101E500087FE206880B2304080F4405038432060D4
:101E60000E480068406980470020BDE8F0810DE021
:101E70000B4890F82C100020FFF716FE286880B25F
:101E8000304080F4405038432860E9E70220ECE716
:101E90001C00002088000020005C0040240000207E
:101EA000B000002010B5074C30B10748006800684A
:101EB000804720680A3010BD216801200882002078
:101EC00010BD00001C00002024000020054A1368FB
:101ED0005A8A10B10868104470478888801A18829E
:101EE000002070471C00002010B5074C30B1074897
:101EF00000688068804720680C3010BD2168012090
:101F00000882002010BD00001C00002024000020DA
:101F10001F4910B5096860B11E48002202800A7886
:101F200053060AD002F07F02012A16D0022A16D0E8
:101F300001E002200882002010BD497A8A0602785A
:101F400002D542F0020201E002F0FD0249060270F1
:101F5000D1B210D401F0FE010FE00E4810BD4A7955
:101F600002F00F0113060C4A52F8211007D5C1F3F5
:101F7000011106E0017841F00101017003E0C1F3B5
:101F800001310129F6D00548006800698047E4E77F
:101F90001C00002016000020005C004024000020EF
:101FA0000A4810B500680A4AC1785278914203D8AD
:101FB00082780AB982880AB1022010BD8172054870
:101FC000006840688047002010BD00001C00002011
:101FD0008800002024000020064810B50068417ADF
:101FE00041F02001417204480068C0698047002028
:101FF00010BD00001C0000202400002070B51C480B
:1020000002681C48517921F0800500EB85000B0621
:10201000036821F0800403D5C3F301131B0102E020
:10202000C3F301331B03144D2D78A54211D95488F5
:102030007CB973B1927A62B109060029016848F24D
:10204000800289B207DA48F6BF73194081F01001A7
:1020500006E0022070BD4BF68F73194081F4805169
:10206000114301600548006880698047002070BD09
:102070001C000020005C004088000020240000209C
:1020800010B50E4C0E4A20681268C17892694079EA
:10209000904721688A7A22B118B9087908B98878F6
:1020A00008B1022010BD07480068C068804720685A
:1020B0004179C172C1780173002010BD1C0000205D
:1020C00020000020240000200648016889B241F069
:1020D00008010160016889B241F004010160FFF765
:1020E0001BB90000405C0040704700000F4810B56D
:1020F000016841F00101016041680D4A11404160F1
:1021000001680C4A11400160016821F480210160DE
:10211000416821F4FE0141604FF41F018160FFF727
:1021200063FD05494FF00060086010BD00100240DB
:102130000000FFF8FFFFF6FE08ED00E000298189AE
:1021400002D041F4005101E021F400518181704737
:102150001FB500F09DF84FF4E13000900020ADF87D
:102160000600ADF80400ADF80800ADF80C000C2036
:10217000064CADF80A006946204600F02FF8012110
:102180002046FFF7DBFF00F003F81FBD00380140D9
:1021900038B518208DF803004FF40070ADF800003A
:1021A0000320094C8DF8020069462046FFF7E0F84D
:1021B00004218DF803100902ADF80010694620468D
:1021C000FFF7D6F838BD00000008014002460020A5
:1021D00012880A4200D001207047000030B50D4639
:1021E000018A85B004464CF6FF700140E888084338
:1021F0002082A0894EF6F3110840A9882A8911434C
:102200006A8902431143A181A18A4FF6FF40014030
:10221000A8890843A0826846FFF7E4FA1B48844275
:1022200001D1039800E00298A1890904002900EB7C
:10223000C00101EB0010296802DA4FEA410101E018
:102240004FEA8101B0FBF1F06422B0FBF2F14FEAFA
:1022500001114FEA11136FF018056B4300EB830077
:10226000A3891D044FF0320306D503EBC000B0FB79
:10227000F2F000F0070005E003EB0010B0FBF2F015
:1022800000F00F000843208105B030BD0038014048
:10229000012144F20400FFF779BAC1F308018180FB
:1022A00070470000044A00284FF00801104601D092
:1022B000FFF7ACB8FFF7ACB800180140024610B504
:1022C0000020402900D94021044B03E01C5C02F8A7
:1022D000014B401C8842F9D3084610BD580100202C
:1022E00006480549022201600A72064A0449C0E90B
:1022F00001120868004700003C0100201C0000207B
:10230000B00000200001002008B54FF44070FFF736
:102310003BF914208DF8000001208DF80100002108
:102320008DF802108DF803006846FFF7FBF808BD32
:1023300070B52A4C20682A4D68806888294E3188FB
:102340000840000401D5FEF76DFB6888318808401D
:10235000400505D54FF6FF30206023484068804790
:10236000698830880140890402D54DF6FF712160EB
:1023700069880140C80405D54EF6FF702060002032
:10238000FFF708FB68883188084000050BD517481F
:10239000007810B1FFF798FE02E00220FFF7FAFA8A
:1023A0004FF2FF702060698830880140890506D5AA
:1023B0004FF6FF512160297801F1010129706988E8
:1023C00001EA0001C80507D54FF6FF602060BDE8AF
:1023D00070400720FFF7DEBA70BD0000445C00408B
:1023E0004A00002028000020B00000202801002022
:1023F000FFF79EBF05490020086005494FF43F40A4
:1024000008800249091F086000207047445C0040B2
:102410002800002010B50C468AB24FF48C7100F0F1
:102420000BF840210220FFF799FB0220FFF7BCFBCD
:10243000204610BDFEE70000084B10B5521C5208A4
:1024400003EB410108D003784478801C43EA04235D
:1024500021F8043B521EF6D110BD00000060004080
:102460000FB4054B10B503A9044A029800F0C4F854
:1024700010BC5DF814FB0000552D00083801002049
:1024800002E008C8121F08C1002AFAD1704770473D
:10249000002001E001C1121F002AFBD1704700009B
:1024A0002DE9FF5FDDE90210020DDDF838B00143D0
:1024B0000FD10F9801244BA3012807D000980F9A41
:1024C000C0E90031C0E90242BDE8FF9F6FEA0B019D
:1024D000F4E7A2F2FF3244F61050424315140F986D
:1024E00001280ED0A5EB0B00401C4FF000043E4E1F
:1024F000DFF8F890B0F1000AA04605DACAF100074B
:1025000017E0CBF10000F0E7074612E0F80707D02C
:102510002246334640464946FDF732FE804689460C
:102520002246334610461946FDF72AFE04460E465B
:102530007F10002FEAD1DDE90201BAF1000F424617
:102540004B4602DAFDF71CFE01E0FEF742F80446B6
:102550000E460022264BFEF7C3F803D84FF0FF309B
:10256000014607E00022234B20463146FDF78BFF52
:10257000FEF79EF8102409E0002C0ADB0A22002353
:10258000FDF7BBFE019B30321A55641E50EA010272
:10259000F2D1641C019AC4F1110314440F9A012A68
:1025A00009D00122084301D15B450FDD4FF0000245
:1025B00005F101050DE0084303D1A3EB0B056D1EEA
:1025C00009E000204FF0110B0F9088E701DA00229C
:1025D0006D1E002A83D000980F99C0E90231C0E92E
:1025E000004571E730000000000024400000F03F8B
:1025F0000000F0430000E03F2DE9FF4F95B0064694
:102600009A468946002521E2252801D01799A6E09F
:102610000024F9492746761C4FF0010803943278CC
:10262000203A08FA02F0084202D00443761CF6E78A
:1026300030782A2811D06FF02F023078A0F13001C5
:10264000092916D8039944F0020401EB810102EB39
:1026500041010844761C0390EFE759F8041B0391ED
:10266000002903DA484244F40054039044F0020481
:10267000761C30782E2816D116F8010F44F0040489
:102680002A280DD06FF02F013078A0F13002092AEE
:1026900009D807EB870201EB42028718761CF3E7A3
:1026A00059F8047B761C30786C280FD006DC4C2857
:1026B00017D068280DD06A2814D104E0742810D0EF
:1026C0007A280FD10DE044F400140AE044F4801499
:1026D00001E044F440147178814202D1761C04F583
:1026E0008014761C96F800C0BCF1660F10D01ADC7E
:1026F000BCF1580F70D00CDCBCF1000F6DD0BCF1F8
:10270000450FF3D0BCF1460FF0D0BCF1470F24D1F8
:10271000A4E1BCF1630F40D0BCF1640F74D0BCF1F4
:10272000650F1AD19AE1BCF1700F6ED00CDCBCF1D0
:10273000670FEDD0BCF1690F75D0BCF16E0F12D0F0
:10274000BCF16F0F09D1B3E0BCF1730F2FD0BCF116
:10275000750F76D0BCF1780F74D017996046524649
:1027600090476D1C70E1C4F30250022809D0032881
:102770000DD0D9F8001004280DD00D6009F104091E
:1027800062E1D9F80010EA17C1E90052F6E7D9F87A
:1027900000100D80F2E70D70F0E759F8041B8DF87A
:1027A000001000208DF80100EB46012003E059F8ED
:1027B00004BB4FF0FF3061074FF0000102D40FE07F
:1027C00008F101018846B94211DA8045F8DB1BF8AF
:1027D00008100029F4D10AE060E03BE108F10101B2
:1027E00088468142FADB1BF808100029F6D10398CD
:1027F0005346A0EB080721463846179A00F091FA95
:10280000284400EB080506E00DE049E01BF8010B49
:10281000524617999047B8F10108F7D2534621461E
:102820003846179A0DE10A21C4F302524FF0000B0B
:102830000091022A07D059F8040BC117032A0AD0C5
:102840000BE024E025E009F1070020F00702F2E8A0
:102850000201914605E000B2C117042A01D140B23D
:10286000C117002906DA0A460021404261EB020145
:102870002D2202E0220504D52B228DF8042001220E
:1028800003E0E20701D02022F7E7904654E00A2156
:1028900000E010214FF0000B00910DE0102008E047
:1028A00010204FF0000B44F004040827009003E0D0
:1028B00008204FF0000B0090C4F30252022A05D00A
:1028C00059F8040B0021032A08D009E009F1070098
:1028D00020F00702F2E80201914605E080B20021F3
:1028E000042A01D1C0B200214FF00008220723D5ED
:1028F000BCF1700F28D0009B83F0100353EA0B0348
:1029000009D150EA010206D030228DF804208DF85A
:1029100005C002229046009B83F0080353EA0B0394
:102920000AD150EA010201D1620705D530228DF8A3
:1029300004204FF001087F1EBCF1580F09D02FA2D0
:102940000C920CAA029211E040228DF80420012280
:10295000E0E72FA2F4E75B46009AFDF7CEFC0C9B64
:102960009B5C029AA2F101020292137050EA0102EA
:10297000F1D1029804A9A1EB000000F1200B60073F
:1029800002D524F4803400E001275F4502DDA7EB87
:102990000B0000E0002000EB0B0100900398414485
:1029A000A0EB01000390E00306D453462146179A9A
:1029B000039800F0B6F90544002706E001A8524646
:1029C000C05D179990476D1C7F1C4745F6DBE003FF
:1029D0000CD553462146179A039800F0A2F90544F6
:1029E00004E030205246179990476D1C0099481E0C
:1029F00000900029F5DC1EE0092801003031323357
:102A0000343536373839616263646566000000002A
:102A10003031323334353637383941424344454614
:102A2000000000000298029952460078491C029169
:102A3000179990476D1CBBF10001ABF1010BF1DC64
:102A400050E100F05BF9054406F1010630780028FA
:102A50007FF4DAAD19B02846BDE8F08F600700D4E6
:102A6000062709F1070020F00701F1E80220894656
:102A700000F00043190001D09DA109E0210501D516
:102A80009CA105E0E10701D09BA101E0AFF2840128
:102A900020F000431391BCF1650F11D009DCBCF1AB
:102AA000450F0DD0BCF1460F20D0BCF1470F3ED1F1
:102AB0003EE0BCF1660F19D0BCF1670F7CD137E066
:102AC0000021112F01DB112000E0781CCDE900016D
:102AD00004A90CA8FFF7E4FCDDE90D010C9A4FF006
:102AE000000B07F10108109200914CE04FF00040FC
:102AF0000097CDE9018004A90CA8FFF7D1FCDDE91E
:102B00000E20DDE90C314FF0000B9046109300923F
:102B100018B907F1010001EB0008B7EB080003D476
:102B2000C0F1FF3B07F10108A8EB0700019043E06B
:102B3000012F00DA01270021112F01DD112000E013
:102B40003846CDE9000104A90CA8FFF7A9FCDDE98E
:102B50000D010C9A00914FF0000BB846109221071E
:102B60000CD40099414500DA8846B8F1010F05DD23
:102B7000109AA8F10101515C302908D0B84202DA5C
:102B800010F1040F06DA0121CDE9011014E0A8F1DB
:102B90000101E9E7002803DC8344A8EB000102E01F
:102BA000411C414500DD8846A0EB0B0000F101000F
:102BB00001904FF000400290200705D40198404555
:102BC00002DB4FF0FF30019000208DF84B0002989F
:102BD0000DF14B07B0F1004F26D002200C902B20B6
:102BE0000D90029800280CDA404202902D200D90A2
:102BF00007E00A210298FDF76AFB3031029007F8DE
:102C0000011D0C99481E0C900029F2DC0298002846
:102C1000EFD1A7F101010D980870307800F0200085
:102C200040F0450007F8020D11A8A0EB070000F1E5
:102C3000070002901398007800B1012000EB080112
:102C4000019801EBE071029801440398A0EB0100A8
:102C5000A0F101000390E00306D453462146179AE1
:102C6000039800F05EF805441398007820B15246AE
:102C70001799904705F10105E00322D553462146F7
:102C8000179A039800F04DF805441AE0BBF1000FC5
:102C900007DB0098584504DD1098179910F80B00D1
:102CA00001E0179930205246904701986D1C401E54
:102CB0000BF1010B019004D12E2052461799904739
:102CC0006D1CB8F10001A8F10108DFDC05E017F880
:102CD000010B5246179990476D1C0299481E0290AD
:102CE0000029F4DC53462146179A0398A9E6000010
:102CF0002D0000002B000000200000002DE9F04115
:102D00000446002517461E46880405D406E03946C9
:102D10002020B04705F10105641EF8D52846BDE81E
:102D2000F0812DE9F0410446002590461E46C80377
:102D300001D5302700E02027880405D506E041466C
:102D40003846B04705F10105641EF8D52846BDE8B0
:102D5000F081000070B5074D0446C1B22846FFF768
:102D60009CFA80212846FFF731FA0028F9D0204646
:102D700070BD0000003801409AB0FEF77FFFFFF7FA
:102D8000E7F94748FFF76CFB45485430FFF768FB0D
:102D90004348A830FFF764FB4148FC30FFF760FB75
:102DA0003F48FFF75DFB3FA0FFF75AFBFFF7ACFA88
:102DB000FEF7C4FFFFF794FAFDF718FDFEF778FA67
:102DC000DFF8E4A0394FE9469AF8001049B3002132
:102DD0008AF8001040216846FFF770FA05469DF812
:102DE0000000802808D1002010AA49460B185B7803
:102DF0001354401C2828F9D329462DA0FFF730FB97
:102E000000244E4604E0315D30A0FFF729FB641C2E
:102E1000AC42F8D32FA0FFF723FB40216846FFF711
:102E2000F9FA2D4C2088FDF71BFA6FF00B052946A7
:102E3000FDF79AF9FDF719FADFF8A0804FF0663632
:102E400032464346FDF79CF9FDF725FA7860218864
:102E500023A0FFF705FB7868FDF707FA02460B464B
:102E600028A0FFF7FDFA2088FDF7FAF92946FDF7BB
:102E70007BF9FDF7FAF932464346FDF781F9FDF794
:102E80000AFA7860218816A0FFF7EAFA7868FDF759
:102E9000ECF902460B461BA0FFF7E2FA94E70000AC
:102EA000B42F00080D0A0000490000202C0100206A
:102EB00075736220676574206461746120256420E5
:102EC0006279746520646174610A0D003078253080
:102ED000325820000A0D00003401002066660A40C6
:102EE0000D0A205468652063757272656E74204106
:102EF000442076616C7565203D203078253034584B
:102F0000200D0A000D0A20546865206375727265F1
:102F10006E742041442076616C7565203D202566E5
:102F20002056200D0A00000012010002000000409F
:102F30008304505700020102030109022900010124
:102F400000C09609040000020300000009211001DE
:102F5000000122210007058203400002070501034A
:102F6000400002058C0901A101090315002600FF9C
:102F7000750895408102090415002600FF75089523
:102F8000409102C004030904140342004A005500A2
:102F9000530042005F00480049004400180342000B
:102FA0007200610069006C006C00650042004A001C
:102FB000540055000D0A2A2A2A2A2A2A2A2A2A2AAD
:102FC0002A2A2A2A2A2A2A2A2A2A2A2A2A2A2A2A61
:102FD0002A2A2A2A2A2A2A2A2A2A2A2A2A2A2A2A51
:102FE0002A2A2A2A2A2A2A2A2A2A2A2A2A2A2A2A41
:102FF0002A2A2A2A2A2A2A2A2A2A2A2A2A2A2A2A31
:103000002A2A2A2A2A0000000D0A2A2A2A2A2A2ADB
:103010002A2A2A2A2A2A2A2A2A2A2A2A2A2A2A2A10
:103020002A2A20436F7079726967687420323030C1
:10303000392D323031322C2056696577546F6F6CE0
:10304000202A2A2A2A2A2A2A2A2A2A2A2A2A2A2AEA
:103050002A2A2A2A2A2A2A2A2A0000000D0A2A2A8B
:103060002A2A2A2A2A2A2A2A2A2A2A2A2A2A2A2AC0
:103070002A2A2A2A2A2A2A2A2A20687474703A2F8D
:103080002F7777772E76696577746F6F6C2E636F05
:103090006D202A2A2A2A2A2A2A2A2A2A2A2A2A2A57
:1030A0002A2A2A2A2A2A2A2A2A2A2A2A2A000000FE
:1030B0000D0A2A2A2A2A2A2A2A2A2A2A2A2A2A2AAD
:1030C0002A2A2A2A2A2A2A2A2A2A2A2A2A2A2A206A
:1030D000416C6C2052696768747320526573657225
:1030E000766564202A2A2A2A2A2A2A2A2A2A2A2A89
:1030F0002A2A2A2A2A2A2A2A2A2A2A2A2A2A2A2A30
:103100002A00000024310008000000203C010000DB
:103110008E070008B83100083C0100205C04000064
:103120009024000845020406082D0102030404054A
:103130001B06070809141A03311231123212371212
:103140003412300212331313121B083D040B1021EA
:1031500015040A151518290463030113282F3308D1
:10316000121A3A0832291A630832211A4C0829998E
:1031700013B50D1408BD0C1B08B1081AB30413C90C
:103180000B1B089D101A91041A31041A25041A7198
:10319000044132401A843832041A880832141A9CC6
:1031A000083218222F33201A297C1A7548091698DC
:0831B0001A8D1C41599FD1004A
:0400000508000131BD
:00000001FF
