:020000040800F2
:100000009005002045010008570B0008BD0A0008B4
:10001000550B00088B020008411A00080000000080
:100020000000000000000000000000003D1000087B
:100030004D090008000000000D0D0008F51600082D
:100040005F0100085F0100085F0100085F01000810
:100050005F0100085F0100085F0100085F01000800
:100060005F0100085F0100085F0100085F010008F0
:100070005F0100085F0100085F0100085F010008E0
:100080005F0100085F0100085F0100085F010008D0
:10009000FD1900085F0100085F0100085F0100080A
:1000A0005F0100085F0100085F0100085F010008B0
:1000B0005F0100085F0100085F0100085F010008A0
:1000C0005F0100085F0100085F0100085F01000890
:1000D0005F0100085F0100085F0100085F01000880
:1000E0005F0100085F0100085F0100085F01000870
:1000F0005F0100085F0100085F0100085F01000860
:100100005F0100085F0100085F0100085F0100084F
:100110005F0100085F0100085F0100085F0100083F
:100120005F0100085F0100085F0100085F0100082F
:10013000DFF80CD000F04AF800480047491F0008DB
:10014000900500200648804706480047FEE7FEE786
:10015000FEE7FEE7FEE7FEE7FEE7FEE7FEE7FEE777
:10016000F9160008310100082DE9F05F054600206E
:1001700092469B4688460646814640241BE0284618
:1001800041464746224600F042F852465B46801AF6
:10019000994110D310461946224600F029F82D1A2D
:1001A00067EB01084F4622460120002100F020F8AD
:1001B00017EB00094E41201EA4F10104DFDC484684
:1001C00031462A464346BDE8F09F0000064C074DE5
:1001D00006E0E06840F0010394E807009847103417
:1001E000AC42F6D3FFF7A8FF002200082022000847
:1001F000202A04DB203A00FA02F1002070479140E7
:10020000C2F1200320FA03F3194390407047202ADB
:1002100004DB203A21FA02F00021704721FA02F3B0
:10022000D040C2F12002914008431946704770B592
:1002300001EB020410F8015B15F0070301D110F87F
:10024000013B2A1106D110F8012B03E010F8016BD5
:1002500001F8016B5B1EF9D12B0705D40023521E58
:100260000FD401F8013BFAE710F8013B02F102025A
:10027000A1EB030303E013F8015B01F8015B521EDD
:10028000F9D5A142D6D3002070BDFEE7C1B2000A65
:1002900040EA0120704700002DE9F05F4BF6BF787F
:1002A00048F28009454F40F68F7A454E454D48F655
:1002B0000F7B27E0088810F00F0030702BD005EB83
:1002C000800001688CB221040BD5016889B201EA73
:1002D0000A0101603C48317800EB810050F8040CC1
:1002E000804720060ED5307805EB8000016889B282
:1002F00001EA0B0101603548317800EB810050F8CC
:10030000040C80472F4844300068314908800004BD
:10031000D0D4BDE8F09F28683880388800F03000DD
:100320007880388800F440503880286880B200EA2D
:10033000080080F4005080F0200040EA09002860A6
:100340000888C0060028286880B217DB00EA0B0086
:10035000286000F0B5FB24E03988890401D580F4D9
:1003600000507988C90626D47988890601D580F09D
:10037000200080B240EA09002860CAE7010507D5DD
:10038000286880B200EA0A00286000F0E7FF08E071
:100390000004B7D5286880B200EA0A00286000F09F
:1003A00083FC2868398880B200EA0800C904D3D5E4
:1003B00080F48050D0E780F01000D5E72A000020BC
:1003C00018000020005C00406C000020500000205D
:1003D0004C000020074901EB80000168490408D562
:1003E000016848F68F7289B211404CF280021143C5
:1003F00001607047005C0040074901EB8000016824
:10040000490608D5016848F68F7289B2114048F252
:10041000C002114301607047005C0040064901EBD7
:100420008000016848F68F6289B2114048F280026C
:100430001143016070470000005C0040124910B594
:100440000A680628117801F07F0103D1012901D142
:10045000537913B121290AD013E09078222802D0D1
:10046000212802D00DE0094904E0094902E00328EF
:1004700007D1084929B100209161508288470020A6
:1004800010BD022010BD00001C000020D90400088F
:10049000B1040008BD040008014901F01DB80000C6
:1004A00098000020014901F017B8000090000020DA
:1004B000014901F011B80000A800002008B104486B
:1004C0007047044901200968088200207047000035
:1004D0008C0000201C000020014900F0FDBF00003E
:1004E000A000002005490968C978042901D9002025
:1004F0007047034A02EBC10100F0EEBF1C00002070
:10050000E000002009B9002800D002207047000058
:1005100006490968097801F07F01212901D10B28DA
:1005200001D00220704700F071B800001C000020CC
:1005300070B52948002100688172C1722749C979C4
:100540004172002000F07CFD4FF40071002000F0AB
:1005500043FE1021002000F015FE1821002000F0BD
:1005600099FD5821002000F0EFFD0020FFF756FF15
:100570001B4890F82C10002000F09CFD002000F09B
:10058000D1FD4FF4C0642146012000F025FE9821E2
:10059000012000F07FFD4021012000F08BFDE100F3
:1005A000012000F0A7FD2146022000F015FE4FF4C7
:1005B0008C71022000F0C8FD4021022000F0D4FD23
:1005C0002021022000F0DEFD064D01242C600020D9
:1005D00000F03EFD2C6070BD1C000020362000089D
:1005E000B0000020240100200348807A002802D0B7
:1005F00002490520086070473001002024010020D6
:100600000149042008607047240100200348044980
:100610000068C07808600020704700001C000020BF
:100620008C0000207047704710B500F02DFA054887
:1006300000240068847200F08DFB01F0E1F90248AB
:10064000046010BD1C000020240100202DE9F05F93
:10065000DFF89C90DFF89C804FF0300AD9F800104A
:1006600001F11004088A0E7A08B9042E04D0A58876
:10067000A84216D8042615E01F4A1078012804D095
:1006800007261021A8F800102CE01C49002009685A
:100690001B4B89B203EB41014860A8F800A0107021
:1006A00020E00226854200D90546A8B2A168074687
:1006B00088478346002000F0D9F901463A4658465B
:1006C00001F0C0F93946002000F04EFD2088401BA3
:1006D0002080608828446080A8F800A009494FF471
:1006E00040500880D9F800000672BDE8F09F000075
:1006F0001C0000202C00002014000020505C004052
:10070000006000402A0000202DE9F047234EDFF86A
:1007100090904FF03008346834F8100FA168B1B1F0
:1007200008B3A588854200D90546A8B20746884780
:1007300082462088401B20806088284460800020FA
:1007400000F084F901463A46504600F0D1FA20887C
:1007500048B114494FF4405008800021084600F089
:1007600003FDA9F800802088A188884201D30320D6
:1007700001E020B1052031680872BDE8F0873168DA
:1007800006200872084900200968084A89B202EB6D
:1007900041014860A9F80080EFE700001C0000203C
:1007A0002C0000202A000020505C00400060004027
:1007B0002DE9F0415C4C5D4D092620680027296831
:1007C0004278062A05D0AAB1082A4BD00A2A4ED070
:1007D00069E00278520666D18078012804D00228A8
:1007E00004D0032804D05EE0C96954E0096A52E0ED
:1007F000496A50E04288A2BBC288022A53D10279DA
:100800007ABB0278530601D1838833B102F07F02AC
:10081000012A04D0022A0CD045E045493BE08A6910
:10082000407900219047E0B92068807A0028F4D10F
:1008300039E0417901F00F0001F070020B063D49EB
:1008400051F8201003D5C1F30111090102E0C1F3F1
:1008500001310903384B1B78834224D90AB9002996
:10086000DBD120E0007840061DD1344913E0027846
:1008700002F07F02012A16D1827AA2B1428892B98F
:10088000027982B9C288012A0DD18A694079002192
:10089000904740B92A4931B12068478281610020E0
:1008A0008847002006E02968206809694078884761
:1008B000032808D021680A8AA2F57F43FF3B05D1AF
:1008C0000E72BDE8F08120680672FAE7022808D0AF
:1008D0003AB10878000620D5C888824205D9088236
:1008E00013E04FF008000872EBE70ED22868154BB2
:1008F00090F82C00824201D21F7006E0B2FBF0F4A7
:1009000000FB142008B901201870286890F82C000A
:100910008882BDE8F041FFF799BE032008720A49BA
:1009200000030880CDE700001C000020200000200C
:100930001D150008005C004088000020B11400086C
:10094000F5140008140000202A00002070477047AA
:1009500010B540229821064800F0CAF94FF44051E2
:10096000012000F0C7FB03490120087010BD000002
:100970004C010020490000207047704704490A6874
:1009800022F010020A600A6802430A607047000001
:1009900000200240034A116801F038010143116050
:1009A0007047000000200240F0B5CC78002204F02F
:1009B0000F03E40601D58C7823430C884FF00F0C0D
:1009C00014F0FF0F4FF0010E1AD005680E880EFAD2
:1009D00002F42640A6420FD196000CFA06F7BD435A
:1009E00003FA06F63543CE78282E02D0482E02D0E0
:1009F00002E0446100E00461521C082AE6D305606D
:100A00000A88FF2A1DD94568002202F108060EFA5D
:100A100006F40E882640A6420FD196000CFA06F77F
:100A200025EA070703FA06F5CE783D43282E00D1C4
:100A30004461CE78482E00D10461521C082AE4D3C8
:100A40004560F0BD41617047016170470549096823
:100A500089B201EBC000044901EB4000806880B21C
:100A600070470000505C0040006000400449096885
:100A700089B201EBC000034951F8100080B2704701
:100A8000505C0040006000400A4810B50168001D3D
:100A90000468001D006808180BD00822064900F001
:100AA0003DF8054920460422BDE81040103100F011
:100AB00035B810BDE8F7FF1F31000020FEE7000049
:100AC00010B5134C2068017A022904D0042902D001
:100AD000062905D015E0FFF7B9FD2068007A11E07E
:100AE0004178052909D10178490606D1C07800F07E
:100AF000AFFA08480068006A8047074800688068C5
:100B00008047082021680872BDE8104000F000B955
:100B10001C0000202400002020000020F0B500234D
:100B20000A2630274FF0370C1C460FE0B6EB107F3B
:100B300002D907EB107501E00CEB107501F81350AA
:100B400001EB430500015B1C6C70DBB29342EDD3FB
:100B5000F0BD7047FEE770477047000070B50F2486
:100B6000C278017801254FF0E026DAB1124A126806
:100B700002F4E062C2F5E062120AC2F10403D4405A
:100B800042789A408378234013431A010B4BCA548E
:100B9000007800F01F018D40400906EB8000C0F88E
:100BA000005170BD01F01F008540480906EB800030
:100BB000C0F8805170BD00000CED00E000E400E0E2
:100BC0000249084302490860704700000000FA0526
:100BD0000CED00E070B52F4D2868017844784A0686
:100BE00006D001F07F00012828D002282BD035E064
:100BF000092C06D0052C07D0032C0ED0012C14D0C4
:100C00002CE000F0D3FC28E0C1787F292ED8817831
:100C100061BB818851BB807A27E0C17801291DD151
:100C20008088D8B900F0DEFC17E0C178012915D121
:100C3000818899B9407A80060AD40FE00B2C0DD137
:100C400000F024FD09E0012C02D0032C03D005E0C4
:100C500000F0B8FB01E000F0D7FC58B10E48006886
:100C60004169E0B28847032802D018B108200DE09E
:100C700009200BE0094A062000211268084B92B2B5
:100C800003EB42025160074A302111802968087243
:100C900070BD00001C00002020000020505C0040BF
:100CA000006000402C00002010B50F4C2068007A36
:100CB000022811D004280FD0032804D0052802D020
:100CC000072805D008E0FFF71FFD2068007A04E040
:100CD00006480068C0688047082021680872BDE89F
:100CE000104000F015B800001C000020200000207B
:100CF000054B521C520803EB410104D008C920F8EF
:100D0000023B521EFAD1704700600040704700005D
:100D10000C4810B590F82C10002000F0CBF90A48D0
:100D20000068007A082802D0092809D006E007499F
:100D30004FF480500880064910200880002010BD24
:100D4000012010BDB00000201C0000202A0000205F
:100D50002C00002010B5012000F0AAFD064801215A
:100D600001600021054A0160031D19604FF4E05144
:100D700011800160002010BD405C00402800002070
:100D8000044A0029D16901D0014300E08143D161C7
:100D90007047000000100240044A0029916901D008
:100DA000014300E081439161704700000010024060
:100DB0000C48016841F00101016041680A4A114094
:100DC00041600168094A11400160016821F48021F5
:100DD0000160416821F4FE0141604FF41F01816010
:100DE00070470000001002400000FFF8FFFFF6FE11
:100DF000214A10B55168214B11F00C0103D0042990
:100E000001D0082901D0036012E05168536801F451
:100E100070114FF0020413F4803F04EB914102D0B3
:100E200053689B0301D5164B00E0144B59430160F6
:100E30005168144B01F0F00109095C5C0168E14064
:100E40004160546804F4E064240A1C5D21FA04F44F
:100E50008460546804F46054E40A1B5DD940C160A6
:100E60005268084B02F44042920B1B1F9A5CB1FB84
:100E7000F2F1016110BD00000010024000127A0082
:100E800000093D0004000020034600205909094ADA
:100E900001290AD002290AD0516A03F01F02012356
:100EA00093400B4200D0012070471168F5E7116AAA
:100EB000F3E70000001002400248406800F00C0018
:100EC0007047000000100240034A516821F0F00111
:100ED0000143516070470000001002400B490A684E
:100EE00022F480320A600A6822F480220A60B0F597
:100EF000803F07D0B0F5802F03D1086840F4A020D0
:100F000008607047086840F48030F9E7001002403C
:100F1000034A516821F4E0610143516070470000C9
:100F200000100240034A516821F4605141EAC000B8
:100F30005060704700100240014908667047000089
:100F400000004242034B5A68084322F47C121043CB
:100F50005860704700100240034A516821F00301B5
:100F600001435160704700000010024001490860D1
:100F700070470000D800424230B500244FF4A0650D
:100F80003120FFF781FF641CAC4201D00028F7D06C
:100F90003120FFF779FF002800D0012030BD00008C
:100FA00070B51C4C072800D0207020780625042638
:100FB000194906282CD2DFE800F00306090E162096
:100FC00000F02CF824E000F029F80AE0022060701C
:100FD0000320207070BD6078401E6070607800282B
:100FE000F8D1267070BD086880B240F0100008602B
:100FF000052020700A20607070BD6078401E60700F
:1010000060780028F8D1086880B220F010000860ED
:10101000257070BD29010020405C004010B5064CD1
:10102000206880B220F004002060FFF792FD4FF4AA
:101030003F40206010BD0000405C00407047000051
:10104000024920F00700086070470000505C004033
:10105000F0B50E490E4E48F68F770D78002148F214
:10106000800C0AE0CAB206EB82031C68A4B23C40C2
:10107000144344EA0C041C60491CA942F2D30449FD
:1010800040F080004C310860F0BD00008800002076
:10109000005C0040054A21F00101126892B202EBA7
:1010A000C000034A02EB400081607047505C004082
:1010B000006000400D4A12683E2992B202EBC00067
:1010C0000B4A02EB400209D94809C90601D1401E6A
:1010D00080B24FF4004141EA802005E04808C9078A
:1010E00001D0401C80B2800210607047505C00400C
:1010F0000C6000400A4A02EB800210684BF68F73C6
:1011000080B200EA0300CB0401D580F4805089044A
:1011100001D580F4005048F2800108431060704708
:10112000005C0040074901EB800001684BF68F72BC
:1011300089B2114081F4405148F2800211430160AC
:1011400070470000005C0040054A21F00101126870
:1011500092B202EBC000034A42F810107047000040
:10116000505C004000600040044A126892B202EBFA
:10117000C000034A02EB400041607047505C0040F1
:10118000006000400A4A02EB8002106848F6BF7314
:1011900080B200EA0300CB0601D580F0100089067A
:1011A00001D580F0200048F28001084310607047AC
:1011B000005C0040074901EB8000016848F6BF72FF
:1011C00089B2114081F0300148F280021143016080
:1011D00070470000005C0040054A02EB8000026896
:1011E00048F68F1392B21A400A430260704700001B
:1011F000005C0040224900200A6842F480320A6004
:101200004FF4A0630A6800F1010012F4003F01D11D
:101210009842F7D10868800330D51A48026842F036
:1012200010020260026822F003020260026842F0CB
:10123000020202604868486048684860486840F4B4
:1012400080604860486820F47C104860486840F43A
:10125000E8104860086840F0807008600868800105
:10126000FCD5486820F003004860486840F0020060
:1012700048604868C0F381000228FAD17047000036
:10128000001002400020024038B5FFF791FD4FF4F6
:1012900080342046FFF722FEFFF76EFE2749012823
:1012A000087000D0FEE71020FFF768FB0220FFF770
:1012B00071FB0020FFF708FE0020FFF733FE4FF41C
:1012C0008060FFF725FE4FF4E0112046FFF73AFE5D
:1012D0000120FFF731FE3920FFF7D6FD0028FAD0B4
:1012E0000220FFF739FEFFF7E7FD0828FBD10121B7
:1012F0004006FFF745FD01214020FFF74DFD082086
:10130000ADF8000002208DF8020010248DF8034093
:1013100069460B48FFF748FB01211020FFF73CFD11
:1013200049F20300ADF8000003208DF802008DF8AB
:10133000034069460348FFF737FB38BD2E00002005
:10134000001801400010014010B50020FFF70EFE0C
:101350000121BDE81040C805FFF712BD70B5164861
:101360000068174D81B2154800EB4101896889B2C8
:1013700000EB41042868017A09290FD02178017017
:1013800061784170A088FEF781FF29684880208934
:10139000FEF77CFF29688880A089C8802868012121
:1013A0000172C08828B1FFF703FABDE87040FFF76B
:1013B000AFBCFFF70FFCF8E7505C00400060004056
:1013C0001C0000202DE9F04134480168087810F035
:1013D0007F0002D0022805D05EE0487A00F0DF00EE
:1013E000487247E04888002856D10879002853D130
:1013F0004A792C4D22F080001306294C55F82030F4
:1014000003D5C3F301131B0102E0C3F301331B0334
:101410002678044686423FD97BB3897A69B31106A0
:101420000ED555F82010C1F3011101291ED1E0B2EB
:101430000446FEF7E1FF30212046FFF7A3FE15E04A
:1014400005EB80042168C1F3013101290ED14BF66F
:101450008F7648F2800788B1C0B2FEF7BBFF2068E4
:1014600080B2304080F44050384320600E4800681D
:10147000406980470020BDE8F0810DE00B4890F8FE
:101480002C100020FFF716FE286880B2304080F450
:10149000405038432860E9E70220ECE71C000020B8
:1014A00088000020005C004024000020B0000020E4
:1014B00010B5074C30B107480068006880472068C5
:1014C0000A3010BD216801200882002010BD0000F4
:1014D0001C00002024000020054A13685A8A10B11D
:1014E0000868104470478888801A18820020704766
:1014F0001C00002010B5074C30B107480068806818
:10150000804720680C3010BD21680120088200202F
:1015100010BD00001C000020240000201F4910B551
:10152000096860B11E48002202800A7853060AD07A
:1015300002F07F02012A16D0022A16D001E0022012
:101540000882002010BD497A8A06027802D542F04E
:10155000020201E002F0FD0249060270D1B210D48D
:1015600001F0FE010FE00E4810BD4A7902F00F01B4
:1015700013060C4A52F8211007D5C1F3011106E0F9
:10158000017841F00101017003E0C1F3013101294B
:10159000F6D00548006800698047E4E71C00002099
:1015A00016000020005C0040240000200A4810B50E
:1015B00000680A4AC1785278914203D882780AB901
:1015C00082880AB1022010BD817205480068406817
:1015D0008047002010BD00001C0000208800002073
:1015E00024000020064810B50068417A41F020012F
:1015F000417204480068C0698047002010BD0000A7
:101600001C0000202400002070B51C4802681C4803
:10161000517921F0800500EB85000B06036821F06D
:10162000800403D5C3F301131B0102E0C3F30133AC
:101630001B03144D2D78A54211D954887CB973B180
:10164000927A62B109060029016848F2800289B2E3
:1016500007DA48F6BF73194081F0100106E0022056
:1016600070BD4BF68F73194081F4805111430160B6
:101670000548006880698047002070BD1C0000207C
:10168000005C0040880000202400002010B50E4CB3
:101690000E4A20681268C1789269407990472168A3
:1016A0008A7A22B118B9087908B9887808B1022075
:1016B00010BD07480068C068804720684179C17242
:1016C000C1780173002010BD1C0000202000002004
:1016D000240000200648016889B241F00801016039
:1016E000016889B241F004010160FFF746B90000CA
:1016F000405C0040704700000F4810B5016841F0A1
:101700000101016041680D4A1140416001680C4AC5
:1017100011400160016821F480210160416821F4D9
:10172000FE0141604FF41F018160FFF763FD054931
:101730004FF00060086010BD001002400000FFF88C
:10174000FFFFF6FE08ED00E00029818902D041F498
:10175000005101E021F40051818170471FB500F074
:101760009DF84FF4E13000900020ADF80600ADF890
:101770000400ADF80800ADF80C000C20064CADF8E4
:101780000A006946204600F02FF801212046FFF7A5
:10179000DBFF00F003F81FBD0038014038B518200A
:1017A0008DF803004FF40070ADF800000320094CE1
:1017B0008DF8020069462046FFF7F6F804218DF8FF
:1017C00003100902ADF8001069462046FFF7ECF857
:1017D00038BD0000000801400246002012880A427D
:1017E00000D001207047000030B50D46018A85B059
:1017F00004464CF6FF700140E88808432082A08927
:101800004EF6F3110840A9882A8911436A890243D8
:101810001143A181A18A4FF6FF400140A8890843E6
:10182000A0826846FFF7E4FA1B48844201D103987E
:1018300000E00298A1890904002900EBC00101EB36
:101840000010296802DA4FEA410101E04FEA810104
:10185000B0FBF1F06422B0FBF2F14FEA01114FEA64
:1018600011136FF018056B4300EB8300A3891D046F
:101870004FF0320306D503EBC000B0FBF2F000F0EE
:10188000070005E003EB0010B0FBF2F000F00F00E2
:101890000843208105B030BD00380140012144F2E9
:1018A0000400FFF779BAC1F3080181807047000096
:1018B000044A00284FF00801104601D0FFF7C2B8D3
:1018C000FFF7C2B800180140024610B500204029B9
:1018D00000D94021044B03E01C5C02F8014B401C82
:1018E0008842F9D3084610BD4C010020064805493E
:1018F000022201600A72064A0449C0E9011208681E
:1019000000470000300100201C000020B000002033
:101910000001002008B54FF44070FFF751F9142082
:101920008DF8000001208DF8010000218DF80210D3
:101930008DF803006846FFF711F908BD70B52A4C11
:1019400020682A4D68806888294E31880840000444
:1019500001D5FEF7A1FC688831880840400505D50F
:101960004FF6FF3020602348406880476988308800
:101970000140890402D54DF6FF712160698801405C
:10198000C80405D54EF6FF7020600020FFF708FB65
:1019900068883188084000050BD51748007810B1D9
:1019A000FFF798FE02E00220FFF7FAFA4FF2FF700D
:1019B0002060698830880140890506D54FF6FF51BF
:1019C0002160297801F101012970698801EA00018B
:1019D000C80507D54FF6FF602060BDE870400720BE
:1019E000FFF7DEBA70BD0000445C00404A000020F2
:1019F00028000020B000002028010020FFF79EBF33
:101A000005490020086005494FF43F40088002491D
:101A1000091F086000207047445C00402800002037
:101A200010B50C468AB24FF48C7100F00BF84021CF
:101A30000220FFF799FB0220FFF7BCFB204610BDF8
:101A4000FEE70000084B10B5521C520803EB4101A1
:101A500008D003784478801C43EA042321F8043B2F
:101A6000521EF6D110BD0000006000400FB4054BBF
:101A700010B503A9044A029800F018F810BC5DF8EC
:101A800014FB0000251F00082C01002002E008C8FC
:101A9000121F08C1002AFAD170477047002001E0E8
:101AA00001C1121F002AFBD1704700002DE9FF4F32
:101AB0008DB005460F460026E9E1252879D100249E
:101AC0006D1CF74AA246A14601212B78203B01FA62
:101AD00003F0104202D004436D1CF6E728782A2850
:101AE00010D06FF02F022878A0F13001092915D805
:101AF0000AEB8A0102EB410144F0020400EB010A07
:101B00006D1CF0E757F804ABBAF1000F03DA44F4A8
:101B10000054CAF1000A44F002046D1C28782E28F3
:101B200017D115F8010F44F004042A280ED06FF0E5
:101B30002F022878A0F1300109290AD809EB890180
:101B400002EB410100EB01096D1CF2E757F8049B21
:101B50006D1C28786C280FD006DC4C2817D068281C
:101B60000DD06A2814D104E0742810D07A280FD13F
:101B70000DE044F400140AE044F4801401E044F45D
:101B800040146978814202D16D1C04F580146D1CEB
:101B900095F800C0BCF16E0F2AD012DCBCF1630FC7
:101BA0003CD007DCBCF1000F76D0BCF1580F19D146
:101BB000A7E018E0BCF1640F6FD0BCF1690F11D140
:101BC0006BE0BCF1730F32D006DCBCF16F0F71D04B
:101BD000BCF1700F06D196E0BCF1750F6BD0BCF173
:101BE000780F69D06046DDE90F129047761C4DE111
:101BF000C4F30250022806D003280AD0042801CFDB
:101C00000AD0066042E101CF4FEAE671C0E9006107
:101C10003CE101CF068039E1067037E101CF8DF854
:101C2000000000208DF80100EB46012003E057F88A
:101C300004BB4FF0FF3061074FF0000102D40DE00C
:101C400008F10101884649450FDA8045F8DB1BF8A9
:101C500008100029F4D108E008F10101884681420A
:101C6000FADB1BF808100029F6D1DDE90F23AAEBF7
:101C700008008146214600F03CF9304400EB08069C
:101C800004E0DDE90F121BF8010B9047B8F10108E1
:101C9000F7D221464846F4E0FDE00A21C4F302529F
:101CA0004FF0000B0891022A07D001CFC117032A79
:101CB00009D00AE030E022E023E0FF1D27F007070B
:101CC000F7E8020105E000B2C117042A01D140B2D1
:101CD000C117002906DA0023D0EB030063EB0101F2
:101CE0002D2202E0220504D52B228DF8242001228A
:101CF00003E0E20701D02022F7E790464EE00A21F8
:101D00000BE0102109E010214FF0000B44F0040417
:101D10004FF00809089103E008214FF0000B0891EB
:101D2000C4F30252022A04D001CF0021032A06D0B4
:101D300007E0FF1D27F00707F7E8020105E080B282
:101D40000021042A01D1C0B200214FF0000822076F
:101D500024D5BCF1700F29D0089B83F0100353EAFF
:101D60000B0309D150EA010206D030228DF824205D
:101D70008DF825C002229046089B83F0080353EAA1
:101D80000B030BD150EA010201D1620706D53022C4
:101D90008DF824204FF00108A9F10109BCF1580F7A
:101DA00009D040A20B9208AA0A9211E040228DF8B5
:101DB00024200122DFE740A2F4E75B46089AFEF701
:101DC000D3F90B9B9B5C0A9AA2F101020A92137051
:101DD00050EA0102F1D10A98ADEB000000F1200BAE
:101DE000600702D524F4803401E04FF00109D945A1
:101DF00002DDA9EB0B0000E0002000EB0B014144E9
:101E00000890AAEB01000B90E00306D4DDE90F2354
:101E100021460B9800F06DF806444FF000090DF1D3
:101E2000240A07E0DDE90F121AF809009047761C32
:101E300009F10109C145F5DBE0030CD5DDE90F230C
:101E400021460B9800F055F8064404E0DDE90F1236
:101E500030209047761C0899481E08900029F5DC30
:101E600008E00A980A990078491C0A91DDE90F12E6
:101E70009047761CBBF10001ABF1010BF1DC0B9834
:101E80002146DDE90F2300F021F806446D1C287877
:101E900000287FF412AE11B03046BDE8F08F00008C
:101EA0000928010030313233343536373839616230
:101EB00063646566000000003031323334353637F4
:101EC0003839414243444546000000002DE9F041C5
:101ED0000446002517461E46880405D406E0394608
:101EE0002020B04705F10105641EF8D52846BDE85D
:101EF000F0812DE9F0410446002590461E46C803B6
:101F000001D5302700E02027880405D506E04146AA
:101F10003846B04705F10105641EF8D52846BDE8EE
:101F2000F081000070B5074D0446C1B22846FFF7A6
:101F3000BAFC80212846FFF74FFC0028F9D0204644
:101F400070BD00000038014090B0FFF79DF9FFF729
:101F500005FC23A0FFF78AFD21A0FFF787FD21A044
:101F6000FFF784FD2248FFF781FD21485430FFF739
:101F70007DFD1F48A830FFF779FD1D48FC30FFF7B5
:101F800075FD1B48FFF772FD1AA0FFF76FFDFFF705
:101F9000C1FCFFF7D9F9FFF7A9FC174F4FF0000874
:101FA0006D4638780028FCD087F8008040216846CC
:101FB000FFF78AFC0646014610A0FFF757FD0024F4
:101FC00004E0295D14A0FFF751FD641CB442F8D36E
:101FD00013A0FFF74BFD40216846FFF721FDE0E726
:101FE0000C0000001B5B313B34303B33326D000092
:101FF000B02000080D0A000049000020757362201F
:102000006765742064617461202564206279746559
:1020100020646174610A0D00307825303258200048
:102020000A0D000012010002000000408304505716
:1020300000020102030109022900010100C0960902
:102040000400000203000000092110010001222108
:102050000007058203400002070501034000020556
:102060008C0901A101090315002600FF75089540A0
:102070008102090415002600FF750895409102C0F1
:102080000403090414034D00790055005300420075
:102090005F00480049004400180342007900200016
:1020A000760069006500770074006F006F006C00B7
:1020B0000D0A2A2A2A2A2A2A2A2A2A2A2A2A2A2ABD
:1020C0002A2A2A2A2A2A2A2A2A2A2A2A2A2A2A2A70
:1020D0002A2A2A2A2A2A2A2A2A2A2A2A2A2A2A2A60
:1020E0002A2A2A2A2A2A2A2A2A2A2A2A2A2A2A2A50
:1020F0002A2A2A2A2A2A2A2A2A2A2A2A2A2A2A2A40
:102100002A0000000D0A2A2A2A2A2A2A2A2A2A2AEA
:102110002A2A2A2A2A2A2A2A2A2A2A2A2A2A204310
:102120006F7079726967687420323030392D3230BF
:1021300031322C2056696577546F6F6C202A2A2A19
:102140002A2A2A2A2A2A2A2A2A2A2A2A2A2A2A2AEF
:102150002A2A2A2A2A0000000D0A2A2A2A2A2A2A9A
:102160002A2A2A2A2A2A2A2A2A2A2A2A2A2A2A2ACF
:102170002A2A2A2A2A20687474703A2F2F777777B0
:102180002E76696577746F6F6C2E636F6D202A2AC7
:102190002A2A2A2A2A2A2A2A2A2A2A2A2A2A2A2A9F
:1021A0002A2A2A2A2A2A2A2A2A0000000D0A2A2A4A
:1021B0002A2A2A2A2A2A2A2A2A2A2A2A2A2A2A2A7F
:1021C0002A2A2A2A2A2A2A2A2A2A2A20416C6C20E8
:1021D000526967687473205265736572766564200E
:1021E0002A2A2A2A2A2A2A2A2A2A2A2A2A2A2A2A4F
:1021F0002A2A2A2A2A2A2A2A2A2A2A2A2A000000BD
:102200002022000800000020300100002E020008FB
:10221000AC22000830010020600400009C1A000875
:1022200045020406082D0102030404051B060708E5
:1022300009141A0378A9020111134F091B08790424
:102240000B10590B040A15511829046303011324B8
:10225000203308121A360832291A5F0832211A4828
:10226000082999132906140831051B0825081A277F
:1022700004133D041B0811101A05041AA50C1A9921
:10228000041AE5044132401A803832041A840832B4
:10229000141A98083218222F33201A297C1AE93C84
:0C22A0000916981A016441599F110000B2
:0400000508000131BD
:00000001FF
